:020000040800F2
:10000000C806002029020008470F0008810E0008DA
:10001000450F00081F040008F50F0008000000004D
:100020000000000000000000000000004B0F00086E
:100030002104000800000000490F00084D0F0008CF
:10004000430200084302000843020008430200087C
:10005000430200084302000843020008430200086C
:10006000430200084302000843020008430200085C
:10007000430200084302000843020008430200084C
:10008000430200084302000843020008430200083C
:10009000430200084302000843020008430200082C
:1000A000430200084302000843020008430200081C
:1000B000430200084302000843020008430200080C
:1000C00043020008430200084302000843020008FC
:1000D00043020008430200084302000843020008EC
:1000E00043020008430200084302000843020008DC
:1000F00043020008430200084302000843020008CC
:1001000043020008430200084302000843020008BB
:1001100043020008430200084302000843020008AB
:10012000430200084302000843020008430200089B
:10013000430200084302000843020008430200088B
:10014000430200084302000843020008430200087B
:10015000430200084302000843020008430200086B
:10016000430200084302000843020008430200085B
:100170004302000843020008430200080000000098
:10018000430200084302000800F002F800F03CF8C7
:100190000AA090E8000C82448344AAF10107DA45E2
:1001A00001D100F031F8AFF2090EBAE80F0013F0F8
:1001B000010F18BFFB1A43F001031847900E00000F
:1001C000B00E0000103A24BF78C878C1FAD85207A0
:1001D00024BF30C830C144BF04680C6070470000C1
:1001E0000023002400250026103A28BF78C1FBD840
:1001F000520728BF30C148BF0B6070471FB500F0E1
:1002000013FF1FBD10B510BD00F0CFF81146FFF76A
:10021000F5FF00F000FF00F0EDF803B4FFF7F2FF88
:1002200003BC00F0F5F80000094880470948004782
:10023000FEE7FEE7FEE7FEE7FEE7FEE7FEE7FEE796
:10024000FEE7FEE704480549054A064B70470000F3
:10025000E50F000889010008C8000020C80600203A
:10026000C8020020C802002053EA020C00F0698096
:100270002DE9F04B4FF00006002B1FBFB3FA83F5BA
:1002800003FA05F424FA05F65E4012BF1643B2FAEB
:1002900082F502FA05F4C5F120051EBF22FA05FC1D
:1002A00044EA0C04203556EA044C4FEA144418BFC3
:1002B000641C4FF000084FF00009904271EB030CF2
:1002C00039D3002919BFB1FA81F701FA07F6B0FA5C
:1002D00080F700FA07F6C7F120071EBF20FA07FCD7
:1002E00046EA0C062037B6FBF4FCA7EB0507103FE7
:1002F00007F01F0BCBF120060CFA0BFB2CFA06F6CD
:1003000044BFB3460026202FA4BF5E464FF0000B2B
:100310005BEA060C08BF4FF0010B19EB0B09ABFBB6
:10032000027C48EB0608C01B06FB02CC0BFB03CC8F
:1003300071EB0C01C1E70B46024641464846BDE859
:10034000F08B13B54FF000004FF00001AFF30080C9
:10035000BDE81C4070474FF0000200B513469446BC
:100360009646203922BFA0E80C50A0E80C50B1F10D
:100370002001BFF4F7AF090728BFA0E80C5048BF21
:100380000CC05DF804EB890028BF40F8042B08BFBF
:10039000704748BF20F8022B11F0804F18BF00F8BB
:1003A000012B7047704770477047754600F02CF876
:1003B000AE4605006946534620F00700854618B052
:1003C00020B5FFF73FFFBDE820404FF000064FF09B
:1003D00000074FF000084FF0000B21F00701AC467A
:1003E000ACE8C009ACE8C009ACE8C009ACE8C00999
:1003F0008D46704710B50446AFF300802046BDE837
:100400001040FFF70ABF000000487047640000205A
:1004100001491820ABBEFEE7260002007047FEE748
:10042000704772B6FEE700002DE9F84FDFF8BCA177
:100430000022012503264FF00F090AF1040BAAF14F
:10044000040E00BF0B6805FA02F42340A34270D1EA
:100450000F7907F00307012F01D0022F16D187680B
:100460004FEA420806FA08FC27EA0C07D1F80CC04C
:100470000CFA08FC4CEA070CC0F808C04768A74310
:100480000C79C4F3001494403C4344600C79E44379
:10049000A4070AD0C4684FEA420C06FA0CF7BC4322
:1004A0008F6807FA0CF72743C7600C7904F0030440
:1004B000022C12D1D40800EB840CDCF82040570742
:1004C000FF0E09FA07F824EA0804D1F8108008FAA8
:1004D00007F848EA0408CCF8208004684FEA420C88
:1004E00006FA0CF7BC430F7907F0030707FA0CF77D
:1004F000274307604C6814F4403F70D03C4C276899
:1005000047F480472760246822F0030704F48044FE
:100510000094384C07EB040CDCF8084897074FEAC6
:10052000177809FA08F7BC43334FB84202D10027C5
:1005300024E054E0314FB84201D101271EE0304F92
:10054000B84201D1022719E02E4FB84201D103274A
:1005500014E02D4FB84201D104270FE02B4FB842D1
:1005600001D105270AE02A4FB84201D1062705E04C
:10057000284FB84201D1072700E0082707FA08F7FB
:100580002743CCF80878DAF800405746D1F804C081
:100590009C435FEACC2C00D51C433C60DBF8004058
:1005A0005F46D1F804C09C435FEA8C2C00D51C4305
:1005B0003C60DEF800407746D1F804C09C435FEA17
:1005C0008C3C00D51C433C60084F083F3C68D1F888
:1005D00004C09C435FEACC3C00D51C433C60521CE9
:1005E000102AFFF42FAFBDE8F88F0000083C01404F
:1005F0004438024000300140000002400004024044
:1006000000080240000C02400010024000140240AA
:1006100000180240001C02400AB1816170470904C1
:10062000FBE70000014880687047000000000020E0
:1006300070B5040025D094F83D00002520B984F859
:100640003C50204600F0B8F8242084F83D00206893
:10065000016821F0010101602068016841F4004156
:1006600001602068016821F40041016000F0FEF99A
:100670004D4A6168914201D84C4900E04C4988429A
:1006800001D2012070BD4B492368B0FBF1F15E68D7
:1006900026F03F060E435E606368934206D94FF42E
:1006A000967359434FF47A73B1FBF3F12368491CF5
:1006B0001E6A26F03F06314319626168914210D8E4
:1006C0004900401EB0FBF1F2521CC2F30B02042A97
:1006D00001D2042022E0B0FBF1F0401CC0F30B007B
:1006E0001CE0A268F2B301EBC10303EB0116431E49
:1006F000B3FBF6F35B1C43F480431B0549D092B374
:1007000001EBC10202EB0111401EB0FBF1F0401CF5
:10071000C0F30B0040F4804040F400402168CA69F7
:100720004CF6FF739A431043C861D4E907100143A4
:100730002068026822F0C00211430160D4E903017D
:1007400001432068826848F2FF339A431143816075
:10075000D4E9050108432168CA6822F0FF0210436A
:10076000C86001E00EE016E02068016841F0010178
:1007700001602564202084F83D00256384F83E5004
:10078000002070BD01EB4106431EB3FBF6F35B1C7A
:10079000B3E70120C2E701EB4101401EB0FBF1F0DD
:1007A000401CC0F30B00B7E7A086010080841E0048
:1007B00000093D0040420F0010B586B004461421E8
:1007C0006846FFF7C8FD13492068884220D11248C7
:1007D0000021026842F002020260006800F002009C
:1007E0000590C02000901220CDE901010320039064
:1007F0000420049069460948FFF716FE06481030A9
:10080000016841F400110160006800F400100590D7
:1008100006B010BD005400403038024000040240D1
:10082000024881680278114481607047000000200E
:100830000B4810B5016841F400710160016841F492
:1008400080610160016841F480710160032000F063
:1008500061F80F2000F006F800F024F8002010BD29
:10086000003C024070B50D4D04464FF47A71287873
:10087000B1FBF0F00A490968B1FBF0F000F0ECFAC6
:1008800048B9102C07D200222146501E00F022F851
:1008900000206C6070BD012070BD000000000020D1
:1008A0000C0000200A4808B5016841F4804101604D
:1008B000006800F4804000900548001F016841F086
:1008C00080510160006800F08050009008BD000079
:1008D00044380240F0B40E4B1B680C46C3F30223AD
:1008E000C3F10705042D00D90425191D072901D2DC
:1008F000002300E0DB1E012606FA05F1491E214017
:1009000099409E40761E16403143F0BC00F073BB08
:100910000CED00E0064900F0070208684FF6FF03FF
:10092000184040EA0220034A104308607047000064
:100930000CED00E00000FA052DE9F0470E46050039
:1009400065D0DFF81481D8F80000F7B200F0070096
:10095000B04207D288F80070D8F8000000F0070015
:10096000B04254D128683D4C810712D5400703D5C9
:10097000206840F4E05020602878000703D5206804
:1009800040F4604020602068A96820F0F00008432F
:1009900020602878C0072DD03049686808390128C0
:1009A00012D0022813D0032811D009688907002922
:1009B0002DDA216821F0030101432160FFF732FEA7
:1009C000814641F2883A0EE009688903EFE7096839
:1009D0008901ECE7FFF726FEA0EB0901514502D99A
:1009E0000320BDE8F0872068696800F00C00B0EBD8
:1009F000810FEFD1D8F80010404601F00701B14255
:100A000007D90770006800F00700B04201D001204C
:100A1000E7E72878400705D52068E96820F4E0502A
:100A2000084320602878000706D52068296920F44B
:100A3000604040EAC100206000F028F82168084AC0
:100A4000C1F30311515CC8400649086006480068BC
:100A5000FFF708FF0020C4E7003C024008380240CE
:100A6000321000080C000020040000200448054952
:100A700000680968044AC1F38221515CC84070478C
:100A80000C0000200838024042100008154810B53C
:100A9000006810F00C02144813D04110042A0FD043
:100AA000082A0ED10F4C241F2268236802F03F024F
:100AB0005B0207D52068C0F38810A0FB010106E0A7
:100AC000084610BD2168C1F38811A1FB0001002375
:100AD000FFF7CAFB2168C1F30141491C4900B0FB83
:100AE000F1F010BD083802400024F4002DE9F84F61
:100AF00004006ED02078DFF84C93C007A9F10405FC
:100B00004AD009F104000168C1F38101012908D02C
:100B10000068C0F3810002280AD1D9F80000400221
:100B200006D52868800337D560680028E1D033E017
:100B30006068B0F5803F10D0B0F5A02F286810D0C5
:100B400020F480302860286820F4802028606068C5
:100B5000A8B1FFF767FD06460DE0286840F4803035
:100B6000F4E740F480202860F7E700BFFFF75AFD64
:100B7000801B642873D828688003F7D50CE0FFF742
:100B800051FD064605E000BFFFF74CFD801B6428C1
:100B9000F0D828688003F7D42078DFF8AC8280078B
:100BA0004FF0000A3ED5A748001D016811F00C0F58
:100BB00008D00068C0F3810002280BD1D9F80000EA
:100BC000400207D42868800716D5E068012800D1C4
:100BD00012E033E1E068B8B10120C8F80000FFF787
:100BE00021FD064605E000BFFFF71CFD801B022823
:100BF000C0D828688007F7D52868216920F0F80058
:100C000040EAC10028600DE0C8F800A0FFF70AFD27
:100C1000064604E0FFF706FD801B02281FD828685F
:100C20008007F7D42078000722D5864F874861696E
:100C3000703771B101210160FFF7F4FC064604E052
:100C4000FFF7F0FC801B022809D838688007F7D529
:100C50000EE0C0F800A0FFF7E5FC064605E082E0E4
:100C6000FFF7E0FC801B02287DD838688007F7D4A6
:100C70002078400768D5DFF8CCB100270BF13C0B9A
:100C8000DBF80000C0000BD4DBF8001041F080510D
:100C9000CBF80010DBF80000012700F08050009036
:100CA0006B4E3068C00510D4306840F480703060FE
:100CB000FFF7B8FC009005E0FFF7B4FC0099401A7C
:100CC000022850D83068C005F6D55E4EA0686C3654
:100CD00001280FD00528306810D020F001003060C6
:100CE000306820F004003060A068B8B1FFF79AFCCB
:100CF00000900FE0306840F00100F4E740F004009D
:100D00003060F7E7FFF78EFC0099411A41F2883016
:100D1000814266D830688007F4D50EE0FFF782FC88
:100D2000009007E0FFF77EFC0099411A41F28830FD
:100D3000814256D830688007F4D42FB1DBF8001018
:100D400021F08051CBF80010A069C8B33D49091DBE
:100D50000968C1F3810102294AD00228504607D010
:100D6000C8F8600000E03CE0FFF75CFC04463BE0B4
:100D70004746C8F86000FFF755FC064605E000BF8F
:100D8000FFF750FC801B02282BD828688001F7D47D
:100D9000D4E907010843A16A2E4A490802EB014140
:100DA000626A41EA8211084394F82C1040EA01611A
:100DB000C9F8001001203866FFF734FC044606E04D
:100DC0003EE000BFFFF72EFC001B022809D8286870
:100DD0008001F7D534E000BFFFF724FC001B022898
:100DE00002D90320BDE8F88F28688001F4D427E0F9
:100DF0000128F7D0D9F80000E26900F4800191429F
:100E00001CD1226A00F03F01914217D147F6C07110
:100E1000626A0140B1EB821F10D1A26A4FF0FF332A
:100E200000F4403103EB5202B1EB024F06D194F8CB
:100E30002C1000F07060B0EB016F01D00120D1E701
:100E40000020CFE70438024000004742800E4742AE
:100E5000007000400000FFFF10B5401EB0F1807F21
:100E600001D3012010BD4FF0E02460610F21601715
:100E700000F0C1F80020A06107202061002010BD13
:100E8000FEE7000070B586B014216846FFF763FAEC
:100E90001A480025016841F020010160016801F055
:100EA00020010591016841F080010160016801F0B5
:100EB00080010591016841F001010160016801F0C4
:100EC00001010591016841F00201016000680C4ECA
:100ED00000F002004FF4E064059001222146304604
:100EE000FFF79AFB0120CDE900400220CDE9025036
:100EF00069463046FFF798FA06B070BD30380240B8
:100F0000001402400D4810B50B4901600C494160C6
:100F100000214FF480428160C0E903124161816188
:100F2000C1610162FFF784FB002803D0BDE81040D7
:100F3000FFF777BA10BD00000054004010000020F9
:100F4000801A0600FEE7FEE770477047FFF768BCAF
:100F500030B593B030216846FFF7FDF914210CA895
:100F6000FFF7F9F91D480025016841F08051016043
:100F7000006800F0805011901948016841F48041E8
:100F800001600068022400F480401190012000906C
:100F9000000401908001CDE9064008AA0420A821A0
:100FA00082E813000B906846FFF7A0FD08B172B607
:100FB000FEE70CA90F2081E831004FF4A0500F90FC
:100FC0004FF48050109005210CA8FFF7B5FC0028C5
:100FD00001D072B6FEE713B030BD000040380240C9
:100FE000007000400248016841F4700101607047E0
:100FF00088ED00E0FEE70907090E002804DB00F198
:10100000E02080F80014704700F00F0000F1E020AD
:1010100080F8141D7047FFF70BFCFFF799FFFFF7EF
:1010200031FFFFF76FFFFEE74FF04070E1EE100A6F
:1010300070470000000000000000010203040607E2
:101040000809000000000102030400006C10000801
:101050000000002010000000C40100087C100008FF
:1010600010000020B8060000E001000801000000A8
:0C10700010000000000000000024F4004C
:040000050800018965
:00000001FF
