:020000040800F2
:10000000604E0020E9020008C31A0008DD1600084F
:10001000C11A00082F0800080D1D0008000000008C
:10002000000000000000000000000000290200089D
:10003000310800080000000085020008511C00087B
:100040000303000803030008030300080303000878
:100050000303000803030008030300080303000868
:100060000303000803030008030300080303000858
:100070000303000803030008030300080303000848
:100080000303000803030008030300080303000838
:100090000303000803030008030300080303000828
:1000A0000303000803030008030300080303000818
:1000B0000303000803030008030300080303000808
:1000C00003030008030300080303000803030008F8
:1000D00003030008030300080303000803030008E8
:1000E00003030008030300080303000803030008D8
:1000F00003030008030300080303000803030008C8
:1001000003030008030300080303000803030008B7
:1001100003030008030300080303000803030008A7
:100120000303000803030008030300080303000897
:100130000303000803030008030300080303000887
:100140000303000803030008030300080303000877
:100150000303000803030008030300080303000867
:100160000303000803030008030300080303000857
:100170000303000803030008030300080000000055
:10018000030300080303000800F002F800F03CF845
:100190000AA090E8000C82448344AAF10107DA45E2
:1001A00001D100F031F8AFF2090EBAE80F0013F0F8
:1001B000010F18BFFB1A43F001031847D840000095
:1001C000F8400000103A24BF78C878C1FAD8520726
:1001D00024BF30C830C144BF04680C6070470000C1
:1001E0000023002400250026103A28BF78C1FBD840
:1001F000520728BF30C148BF0B6070471FB503F0DE
:1002000063FB1FBD10B510BD00F0D8FA1146FFF713
:10021000F5FF01F0D7FD00F0F6FA03B4FFF7F2FFA7
:1002200003BC00F0FDFA00002C4B19680868B0E828
:10023000F04F80F30988BFF36F8F4FF0000080F319
:10024000118870470000000008480068006880F3CB
:1002500008884FF0000080F3148862B661B6BFF3DF
:100260004F8FBFF36F8F00DF00BF00BF08ED00E0CE
:10027000DFF80C00016841F470010160704700BFB5
:1002800088ED00E0EFF30980BFF36F8F134B1A681E
:100290001EF0100F08BF20ED108A20E9F04F10600B
:1002A00009B44FF0500080F31188BFF34F8FBFF3B4
:1002B0006F8F02F09FFD4FF0000080F3118809BCA2
:1002C00019680868B0E8F04F1EF0100F08BFB0ECD6
:1002D000108A80F30988BFF36F8F70471C000020DD
:1002E000EFF3058070470000094880470948004740
:1002F000FEE7FEE7FEE7FEE7FEE7FEE7FEE7FEE7D6
:10030000FEE7FEE704480549054A064B7047000032
:10031000FD1C00088901000860480020604E002094
:10032000604A0020604A002070B49FED3F0A9608A2
:1003300029D0B446B6F1004F50D2002EC4BF0546B6
:100340000C4620DDD5ED000A94ED001A00EE810A7E
:10035000D5ED010A94ED011A00EE810AD5ED020AED
:1003600094ED021A00EE810AD5ED030A94ED031A0A
:1003700010341035BCF1010C00EE810AE2D100EB23
:10038000061001EB061112F0030223D0B2F1004F68
:1003900041D2002A1EDD001F091F12F0010F07D0F5
:1003A000D0ED010A91ED011A001D091D00EE810A30
:1003B00052080FD0D0ED010A91ED011A00EE810A2A
:1003C000D0ED020A91ED021A08300831521E00EEFB
:1003D000810AEFD183ED000A70BC7047D0ED000AAE
:1003E00091ED001A00EE810AD0ED010A91ED011A9B
:1003F00000EE810AD0ED020A91ED021A00EE810AA8
:10040000D0ED030A91ED031A10301031761E00EE84
:10041000810AE3D1B7E7F0EC010A521EB1EC011AF0
:1004200000EE810AF7D1D5E7000000009FED1A1A0F
:10043000F5EE000A40EE010ABDEEE00AF5EEC00A54
:1004400010EE100AF1EE10FA38BF401E00EE100A4E
:100450001349F7EE001AB8EEC00A30EEC00ADFED1D
:100460000F0A20EE200AFCEEC00A10EE900AC0F33C
:10047000080000EE900A01EB8000F8EE600A90EDB3
:10048000011A70EE600A90ED000A71EEE01A21EE9A
:10049000800A00EE810A704783F9223E0000004482
:1004A0006C3A0008B5EEC00AF1EE10FA07D2DFEDA3
:1004B0001E0AB4EEE00AF1EE10FAA8BF7047DFEDB5
:1004C0001B0AB5EEC00A60EE200ABDEEE01A11EE7E
:1004D000100AF1EE10FA38BF401E00EE100A15495E
:1004E000F7EE001AB8EEC00A30EEC00ADFED100ACF
:1004F00060EE200ABCEEE00A10EE100AC0F308001D
:1005000000EE100A01EB8000B8EE400A90ED011AEF
:1005100070EEC00A90ED000A71EEE01A21EE800A3A
:1005200000EE810A70470000CD024CB483F9223EF0
:10053000000000446C3A000853EA020C00F06980A5
:100540002DE9F04B4FF00006002B1FBFB3FA83F5E7
:1005500003FA05F424FA05F65E4012BF1643B2FA18
:1005600082F502FA05F4C5F120051EBF22FA05FC4A
:1005700044EA0C04203556EA044C4FEA144418BFF0
:10058000641C4FF000084FF00009904271EB030C1F
:1005900039D3002919BFB1FA81F701FA07F6B0FA89
:1005A00080F700FA07F6C7F120071EBF20FA07FC04
:1005B00046EA0C062037B6FBF4FCA7EB0507103F14
:1005C00007F01F0BCBF120060CFA0BFB2CFA06F6FA
:1005D00044BFB3460026202FA4BF5E464FF0000B59
:1005E0005BEA060C08BF4FF0010B19EB0B09ABFBE4
:1005F000027C48EB0608C01B06FB02CC0BFB03CCBD
:1006000071EB0C01C1E70B46024641464846BDE886
:10061000F08B13B54FF000004FF00001AFF30080F6
:10062000BDE81C407047032A40F2308010F0030CF4
:1006300000F0158011F8013BBCF1020F624498BF35
:1006400011F801CB00F8013B38BF11F8013BA2F1D2
:10065000040298BF00F801CB38BF00F8013B11F04D
:10066000030300F02580083AC0F0088051F8043BED
:10067000083A51F804CBA0E80810F5E7121D5CBF5A
:1006800051F8043B40F8043BAFF30080D20724BF8D
:1006900011F8013B11F801CB48BF11F8012B24BF21
:1006A00000F8013B00F801CB48BF00F8012B704770
:1006B00010B5203AC0F00B80B1E81850203AA0E8FD
:1006C0001850B1E81850A0E81850BFF4F5AF5FEA31
:1006D000027C24BFB1E81850A0E8185044BF18C9E4
:1006E00018C0BDE810405FEA827C24BF51F8043B8B
:1006F00040F8043B08BF7047D20728BF31F8023BDF
:1007000048BF11F8012B28BF20F8023B48BF00F872
:10071000012B704702F0FF0343EA032242EA024240
:1007200000F02CB84FF0000200B5134694469646F0
:10073000203922BFA0E80C50A0E80C50B1F12001F4
:10074000BFF4F7AF090728BFA0E80C5048BF0CC0A2
:100750005DF804EB890028BF40F8042B08BF704700
:1007600048BF20F8022B11F0804F18BF00F8012B72
:1007700070477047704770474FF000020429C0F07F
:10078000128010F0030C3FF4CFAFCCF1040CBCF19D
:10079000020F18BF00F8012BA8BF20F8022BA1EB15
:1007A0000C01FFF7C1BF5FEAC17C24BF00F8012B39
:1007B00000F8012B48BF00F8012B7047754600F088
:1007C0002BF8AE4605006946534620F007008546E3
:1007D00018B020B5FFF796FDBDE820404FF00006A9
:1007E0004FF000074FF000084FF0000B21F0070119
:1007F000AC46ACE8C009ACE8C009ACE8C009ACE85C
:10080000C0098D46704710B50446AFF300802046FE
:10081000BDE81040FFF701BD00487047FC470020CD
:1008200001491820ABBEFEE7260002007047FEE734
:100830007047000008B58D208DF8000010208DF85D
:100840000100AE208DF802000348032269460368C8
:100850000020984708BD00009407002008B58D20AF
:100860008DF8000014208DF80100AF208DF80200F3
:1008700003480322694603680020984708BD00002A
:10088000940700202DE9FF4F83B08046894600245D
:1008900015460320A0EB420658E0A9EB05002E4FB9
:1008A0000290C1B208EB040B7B690BF0FF00069AC3
:1008B0009847A9EB04000190C1B208EB050A7B69D7
:1008C0000AF0FF00069A984709EB04000090C1B2B5
:1008D0007B690AF0FF00069A984709EB050A7B69D5
:1008E0000AF0FF010BF0FF00069A98470AF0FF019B
:1008F000A8EB040A7B690AF0FF00069A9847009863
:10090000A8EB050BC1B27B690BF0FF00069A984774
:1009100002987B69C1B20AF0FF00069A98470198D5
:100920007B69C1B20BF0FF00069A9847641C24B2A1
:10093000002E04DA06EB8400801D06B206E0601B80
:1009400006EB80000A3006B26D1E2DB2AC42A4DD6B
:1009500007B0BDE8F08F0000940700202DE9FE4F9E
:1009600000250026121A1FFA82FA5A1A1FFA82FB71
:1009700007468846BAF1000F02D00120019001E03D
:1009800000200190BBF1000F02D00120009001E097
:1009900000200090DA4501D9544600E05C464FF053
:1009A0000009601C02901FE0124A08F0FF01F8B233
:1009B00053690C9A984705EB0A0085B206EB0B00C9
:1009C00086B2A54204D9281B85B20198384407B2E3
:1009D000A64205D9301B86B2009840440FFA80F831
:1009E00009F1010909F0FF0902988145DCD9BDE848
:1009F000FE8F00009407002030B57F2813D82029EF
:100A000011D801F00703C3F107040123A340DBB2AF
:100A10000325074CA5EBD101C9B204EBC1111AB1F2
:100A20000A5C1A430A5430BD0A5C9A430A5430BD2A
:100A3000BC0700202DE9F84F80460A9C89461646DF
:100A40009A460F4D00944B46EF6932464946404660
:100A5000B8470094EF695346424649464046B84776
:100A60000094EF695346324651464046B8470094D9
:100A7000EC695346324649463046A047BDE8F88FF8
:100A80009407002072B6FEE770B5044600F006F940
:100A90000546601C02D004480078044400F0FEF8CB
:100AA000401BA042FAD370BD0C0000202DE9F84F86
:100AB0000022DFF89C914FF0010803274FF00F0C44
:100AC00009F1040AA9F1040B08FA02F50B682B409E
:100AD000AB426ED10C7904F00304012C01D0022C3E
:100AE00015D18668540007FA04FE26EA0E06D1F8EE
:100AF0000CE00EFA04FE4EEA060EC0F808E0446868
:100B0000AC430D79C5F300159540254345600C793C
:100B1000E443A40708D0C568540007FA04F6B543B7
:100B20008E68A6402E43C6600C7904F00304022CA4
:100B300011D1D40800EB8406356A5407E40E0CFA90
:100B400004FE25EA0E05D1F810E00EFA04FE4EEA86
:100B5000050EC6F820E00568540007FA04F6B54310
:100B60000E7906F00306A6402E4306604C6814F486
:100B7000403F67D0374C256845F4804525602468A0
:100B800004F480440094344C22F003052E19D6F866
:100B9000085894074FEA147E0CFA0EF4A5432F4C24
:100BA000A04201D1002424E02D4CA04202D1012416
:100BB0001FE047E02B4CA04201D1022419E02A4C4F
:100BC000A04201D1032414E0284CA04201D1042406
:100BD0000FE0274CA04201D105240AE0254CA04299
:100BE00001D1062405E0244CA04201D1072400E0F5
:100BF000082404FA0EF42C43C6F80848D9F800403B
:100C00009C434D68ED0200D51C43C9F80040DAF85A
:100C100000409C434D68AD0200D51C43CAF800401B
:100C2000DBF800409C434D68AD0300D51C43CBF876
:100C30000040074D083D2C689C434E68F60300D5E4
:100C40001C432C60521C102AFFF43EAFBDE8F88F05
:100C5000083C01404438024000300140000002409E
:100C60000004024000080240000C02400010024054
:100C70000014024000180240001C0240426921EAB0
:100C800002030A4043EA024181617047002A01D011
:100C900081617047090481617047000001488068E4
:100CA000704700000C00002070B50446002C04D0F2
:100CB00094F83D00002510B106E0012070BD84F8D5
:100CC0003C50204600F05EF9242084F83D00206866
:100CD000016821F0010101602068016841F40041D0
:100CE00001602068016821F40041016000F0BEFA53
:100CF0004F4B6168994203D84E49884203D304E0C0
:100D00004D49884201D2012070BD4C49B0FBF1F140
:100D10002268566826F03F060E43566062689A4283
:100D200001D8491C07E04FF4967251434FF47A7290
:100D3000B1FBF2F1491C2268166A26F03F063143E6
:100D400011626168994210D84900401EB0FBF1F26F
:100D5000521CC2F30B02042A01D2042022E0B0FB91
:100D6000F1F0401CC0F30B001CE0A268F2B301EBF1
:100D7000C10303EB0116431EB3FBF6F35B1C43F404
:100D800080431B0549D092B301EBC10202EB011174
:100D9000401EB0FBF1F0401CC0F30B0040F480405B
:100DA00040F400402168CA694CF6FF739A4310432F
:100DB000C861D4E9071001432068026822F0C0022C
:100DC00011430160D4E9030101432068826848F2BD
:100DD000FF339A4311438160D4E905100143206831
:100DE000C26822F0FF021143C16001E00EE016E08C
:100DF0002068016841F0010101602564202084F829
:100E00003D00256384F83E50002070BD01EB410693
:100E1000431EB3FBF6F35B1CB3E70120C2E701EB13
:100E20004101401EB0FBF1F0401CC0F30B00B7E7DE
:100E3000A086010080841E0000093D0040420F0092
:100E40002DE9FF4F83B00446DDE911988A469346A9
:100E5000109DFFF723FF064694F83D00202803D09D
:100E6000022007B0BDE8F08F192301224349204634
:100E7000009600F0D4FC08B10220F2E794F83C00A0
:100E8000012807D0012084F83C0020680168C907C8
:100E900002D005E00220E4E7016841F001010160B1
:100EA0002068016821F400610160212084F83D0080
:100EB000402084F83E00002727646562A4F82A9049
:100EC000608D20852E48E062CDE900865A46514665
:100ED0002046069B00F01AFC80B30120C1E7324691
:100EE0004146204600F02CFD48B1206C042804D176
:100EF0002068016841F4007101600120B1E7606A77
:100F0000216800780861656A6D1C6562208D401E4D
:100F100080B22085618D491E618523685969C94366
:100F200049070BD450B128781861606A401C606290
:100F3000208D401E2085608D401E6085208D0028FC
:100F4000CDD132464146204600F042FC48B1206CEB
:100F5000042804D12068016841F400710160012077
:100F60007FE71F3454F81F0C016841F400710160E1
:100F70002020A077E7776777002072E70200100053
:100F80000000FFFF10B586B00446142101A8FFF74A
:100F9000C9FB14492068884221D100211248026807
:100FA00042F002020260006800F0020000904FF47C
:100FB00040700190122002900391032004900420BD
:100FC000059001A90948FFF771FD07481030016835
:100FD00041F400110160006800F40010009006B0B8
:100FE00010BD0000005400403038024000040240B0
:100FF0000248816802781144816070470C0000202B
:1010000010B50B48016841F400710160016841F4BA
:1010100080610160016841F480710160032000F08B
:1010200067F80F2000F006F800F026F8002010BD49
:10103000003C024070B504460D4D4FF47A7128789B
:10104000B1FBF0F00B490968B1FBF0F000F032FBA6
:1010500008B1012070BD102C07D200222146501E7D
:1010600000F026F86C60002070BD012070BD00000B
:101070000C0000201800002082B00C48016841F4E8
:1010800080410160006800F4804001900748001F23
:10109000016841F080510160006800F080500190CB
:1010A00000220F21901E02B000F002B84438024026
:1010B000F0B40D460D4B1B68C3F30223C3F10704C4
:1010C000042C00D90424191D072901D2002300E0B3
:1010D000DB1E012606FA04F1491E294099409E4074
:1010E000761E16403143F0BC00F011BE0CED00E05E
:1010F00000F00701054A10684FF6FF03184040EA68
:101100000120034908431060704700000CED00E027
:101110000000FA052DE9F04704460D46002C13D0D7
:10112000DFF82891D9F80000EFB200F00700A842DC
:101130000CD289F80070D9F8000000F00700A8422E
:1011400004D00120BDE8F0870120FBE72068404E75
:10115000810712D5400703D5306840F4E050306075
:101160002078000703D5306840F460403060306874
:10117000A16820F0F000084330602078C00731D02B
:10118000334960680839012808D002280BD00328A9
:1011900009D0096889070BD40120D3E709688903BE
:1011A00006D40120CEE70968890101D40120C9E7EE
:1011B000316821F0030101433160FFF76FFD804684
:1011C00041F2883A07E0FFF769FDA0EB08005045BF
:1011D00001D90320B6E73068616800F00C00B0EB7D
:1011E000810FF0D1D9F8000000F00700A84209D91A
:1011F00089F80070D9F8000000F00700A84201D07B
:1012000001209FE72078400705D53068E16820F489
:10121000E050084330602078000706D53068216927
:1012200020F4604040EAC100306000F02FF83168DF
:10123000084AC1F30311515CC840074908600748D8
:101240000068FFF7F7FE00207CE70000003C02404A
:1012500008380240543A000818000020100000200E
:1012600001480068704700001800002000B5FFF733
:10127000F7FF04490968044AC1F38221515CC84060
:1012800000BD000008380240643A000810B5174855
:10129000006810F00C01164816D04310042912D033
:1012A000082911D1114C241F216801F03F02216847
:1012B00049020AD52068C0F38810A0FB030100236F
:1012C000FFF73AF909E0184610BD21680023C1F381
:1012D0008811A1FB0001FFF72FF92168C1F301413B
:1012E000491C4900B0FBF1F010BD00000838024075
:1012F0000024F4002DE9F84F0446002C13D0207888
:10130000DFF8A083C007A8F1040556D008F1040057
:101310000168C1F3810101290CD00068C0F381008C
:10132000022803D00DE00120BDE8F88FD8F80000B6
:10133000400206D5286880033FD5606870BB012055
:10134000F2E76068B0F5803F10D0B0F5A02F12D062
:10135000286820F480302860286820F480202860E5
:101360006068E0B1FFF79AFC064614E0286840F494
:1013700080302860F4E7286840F4802028602868DE
:1013800040F480302860EBE7FFF788FC801B64287E
:1013900001D90320C8E728688003F5D50DE0FFF7E1
:1013A0007DFC064606E0FFF779FC801B642801D926
:1013B0000320B9E728688003F5D42078BA4F800766
:1013C0004FF0000948D5B748001D016811F00C0F17
:1013D00008D00068C0F38100022813D1D8F80000BB
:1013E00040020FD42868800704D5E068012801D0A6
:1013F000012099E72868216920F0F80040EAC1003F
:10140000286029E0E068B8B101203860FFF746FCA9
:10141000064606E0FFF742FC801B022801D90320A4
:1014200082E728688007F5D52868216920F0F80050
:1014300040EAC10028600FE0C7F80090FFF72EFCDB
:10144000064606E0FFF72AFC801B022801D903208C
:101450006AE728688007F5D42078000729D5DFF8E7
:1014600044A2924861690AF1700A89B101210160C0
:10147000FFF714FC064606E0FFF710FC801B02286D
:1014800001D9032050E7DAF800008007F4D510E016
:10149000C0F80090FFF702FC064606E0FFF7FEFBEF
:1014A000801B022801D903203EE7DAF800008007FC
:1014B000F4D42078400778D54FF0000A79483C30C2
:1014C0000068C0000BD477483C30016841F080517F
:1014D0000160006800F0805000904FF0010ADFF8D2
:1014E000D0B1DBF80000C00514D4DBF8000040F4F4
:1014F0008070CBF80000FFF7D1FB064606E0FFF74F
:10150000CDFB801B022801D903200DE7DBF800008A
:10151000C005F4D5634EA0686C3601280FD00528AD
:1015200012D0306820F001003060306820F00400F4
:101530003060A068F8B1FFF7B1FB834617E0306870
:1015400040F001003060F4E7306840F004003060A3
:10155000306840F001003060EBE7FFF79FFBA0EB45
:101560000B0141F28830814201D90320DCE630686A
:101570008007F2D510E0FFF791FB834609E0FFF703
:101580008DFBA0EB0B0141F28830814201D9032091
:10159000CAE630688007F2D4BAF1010F05D141489C
:1015A0003C30016821F080510160A069C0B33D4921
:1015B000091D09684FF0FF36C1F38101022946D0A9
:1015C000022805D0C7F86090FFF768FB04463AE0B0
:1015D000C7F86090FFF762FB814607E0FFF75EFB0C
:1015E000A0EB0900022801D903209DE628688001AC
:1015F000F4D4D4E907010843616AA26A890106EBC1
:10160000520241EA0241084394F82C1040EA01607A
:10161000C8F8000001203866FFF740FB044607E0E9
:101620003DE0FFF73BFB001B022801D903207BE6CE
:1016300028688001F5D532E0FFF730FB001B022857
:1016400001D9032070E628688001F5D427E001283D
:1016500023D0D8F80000E26900F4800191421AD149
:10166000226A00F03F01914215D147F6C071626ACB
:101670000140B1EB821F0ED1A26A00F4403106EBAB
:101680005202B1EB024F06D194F82C1000F07060BA
:10169000B0EB016F03D0012046E6012044E60020B4
:1016A00042E600000438024000004742800E4742F4
:1016B0000070004010B5401EB0F1807F01D30120C2
:1016C00010BD4FF0E02460610F21601700F01FFB98
:1016D0000020A06107202061002010BDFEE7016806
:1016E0004A69D24352050FD46FF480624A610021E7
:1016F00040F8301F202242738173026942F00402D5
:101700000261017301207047002070472DE9F84302
:101710000446DDE908970D4616469846206801689C
:1017200041F4807101604B4600224FF001112046C8
:10173000009700F074F848B120680068C00502D531
:101740004FF4007020640320BDE8F883216805F0A1
:10175000FE0008613B464A461C49204600F09CF8C2
:1017600008B10120F0E720684169806900903A469D
:101770004946204600F0E4F848B1206C042804D122
:101780002068016841F4007101600120DCE7F5B2D6
:10179000B8F1010F0CD02168300A08613A46494679
:1017A000204600F0CDF868B1206C042803D007E093
:1017B0002068056108E02068016841F4007101605B
:1017C0000120C1E7206805610020BDE7020001009B
:1017D00070B504460D4616460DE02046FFF77FFF24
:1017E00008B1012070BD681C05D0FFF757FA801BB7
:1017F000A84207D835B120684069C0434007ECD4FF
:10180000002070BD002044F8300F20216173A073C8
:10181000216941F0200121612073012070BD2DE973
:10182000F0470446DDF820900E4690461D46C6F36C
:10183000074708E0681C06D0FFF730FAA0EB090064
:10184000A8420FD875B1012F19D02068806926EA07
:1018500000000004000C1DD000204045EAD000200C
:10186000BDE8F087002044F8300F20216173A07399
:10187000216941F02001216120730120F0E72068F7
:10188000406926EA00000004000C01D00020E4E7D3
:101890000120E2E70120E0E72DE9F04704460E468B
:1018A000154698464FF000094FF0200AC6F3074747
:1018B00025E020684069C043400517D420680168CE
:1018C00041F40071016021686FF480604861C4F8E0
:1018D000309084F83DA084F83E90206C40F00400E5
:1018E000206484F83C900120BDE8F087681C06D095
:1018F000FFF7D4F9A0EB0800A8420BD855B1012F8F
:1019000016D02068806926EA00000004000CD0D1BF
:101910000020E9E7C4F8309084F83DA084F83E90B8
:10192000206C40F02000206484F83C900120DBE72C
:101930002068406926EA00000004000CE8D0B8E7FF
:1019400070B504460D4616460DE02046FFF7C7FE6B
:1019500008B1012070BD681C05D0FFF79FF9801BFE
:10196000A84207D835B120684069C0430006ECD4CE
:10197000002070BD002044F8300F20216173A07357
:10198000216941F0200121612073012070BD000018
:101990000EB564238DE80E0002460123782102482B
:1019A000FFF74EFA0EBD00004007002010B596B0BC
:1019B0001C2211490FA8FEF77BFE00210FA800F0A2
:1019C000A2FA0E4CA0601C220B491C3108A8FEF79D
:1019D0006FFE002108A800F096FA20601C2206493C
:1019E000383101A8FEF764FE002101A800F08BFA4F
:1019F000606016B010BD0000D43800080000002060
:101A000070B586B0142101A8FEF78CFE00251A4897
:101A1000016841F020010160016801F0200100919E
:101A2000016841F080010160016801F080010091CE
:101A3000016841F001010160016801F001010091BC
:101A4000016841F002010160006800F002000090AE
:101A50000A4E4FF4E064012221463046FFF716F9A2
:101A600001940121029103950221049101A93046BC
:101A7000FFF71CF806B070BD303802400014024079
:101A800010B50D480B4901600C494160002181608F
:101A9000C1604FF48042026141618161C1610162B4
:101AA000FFF702F9002803D0BDE81040FEF7EABFB7
:101AB00010BD00000054004040070020A086010037
:101AC000FEE7FEE700F0E8F9034C6068804710206D
:101AD00000F00CFAF9E70000940700202DED088BC8
:101AE000CAB0DFED39AA9FED39BA6022384932A871
:101AF000FEF7DEFD60211AA8FEF714FE60223449CD
:101B0000603102A8FEF7D4FD9FED329AF0EE499ABB
:101B1000B0EE49AADFED308A9FED308ADFF8C09041
:101B20001AAE02AF4FF0010839EE2A9A79EEAA9A5E
:101B30003AEE0BAA1AA9B0EE490AF0EE690AB0EE25
:101B40004A1A32A800F0A0FE0024601CCDF80080E4
:101B500057F82000D9F81C50401E00EB400006EB5F
:101B6000800090ED010A30EE280AFCEEC01A11EE5A
:101B7000901AD0ED001ACBB231EE880AFCEEC01AF2
:101B800011EE900AC2B257F82400401E00EB40004C
:101B900006EB8000D0ED011A31EEA80AFCEEC01A67
:101BA00090ED000A11EE901A30EE080AC9B2FCEE70
:101BB000C01A11EE900AC0B2A847A41C182CC4DBAE
:101BC0000A2000F093F9AFE7CDCC4C3D0AD7233C77
:101BD00094390008000000000000004200000043AB
:101BE00094070020F8B50DA00068009000240C4D6B
:101BF00005F1280604F1B0008DF8000003222B68DF
:101C000069460020984780222B6806EBC4114020CB
:101C10009847641CE4B2042CECD3F8BD000010001B
:101C20009407002008B5B0318DF80010102141EA6A
:101C300010118DF8011000F00F008DF8020003481C
:101C40000322694603680020984708BD94070020D6
:101C500010B5FFF7CDF901F061FC012803D0BDE814
:101C6000104001F071B910BD30B593B0302107A814
:101C7000FEF758FD142102A8FEF754FD00251D486B
:101C8000016841F080510160006800F080500190CF
:101C90001948016841F480410160006800F4804007
:101CA0000190012007900004089002240D94800107
:101CB0000E9004200F90A82110911194129007A863
:101CC000FFF718FB08B1FEF7DDFE0F20029003942A
:101CD00004954FF4A05005904FF4805006900521D4
:101CE00002A8FFF717FA002801D0FEF7CBFE13B0C9
:101CF00030BD0000403802400070004002480168DA
:101D000041F470010160704788ED00E0FEE70907CB
:101D1000090E002804DB00F1E02080F80014704771
:101D200000F00F0000F1E02080F8141D7047000063
:101D30000B480A4901600B4941600B4981600B491E
:101D400001610B49C1600B4941610B4981610B493C
:101D5000C1610B4901620B4941627047911900084A
:101D600094070020E51B0008251C00085D080008FA
:101D700035080008F9090008891D00085D090008F8
:101D8000350A0008850800082DE9F05F0546DDF8F2
:101D900028B0894692469846094F0CE04C4606E02A
:101DA0007E695A4621462846B047641CE4B2444541
:101DB000F6D96D1CEDB25545F0D9BDE8F09F000095
:101DC00094070020FFF71CF9FFF74EFFFFF718FEFE
:101DD000FFF756FEFFF7EAFD00F090F8FEE7014638
:101DE0000020842900D0C81C704730B58FB014463D
:101DF000002309AA00EB830595ED000A02EB830599
:101E000085ED000A5B1C032BF4DB002006AA01EB26
:101E1000800393ED000A02EB800383ED000A401C6F
:101E20000328F4DB002003AA01EB800393ED030AEF
:101E300002EB800383ED000A401C0328F4DB002042
:101E40006A4601EB800393ED060A02EB800383ED03
:101E5000000A401C0328F4DB0EAB032206A909A8E4
:101E6000FEF762FA0DAB032203A909A8FEF75CFA9C
:101E70000CAB0322694609A8FEF756FA9DED0E0A3F
:101E800084ED000A9DED0D0A84ED010A9DED0C0A1A
:101E900084ED020A0FB030BD10B588B0FFF748FFDF
:101EA000C820FEF7F1FD182209A102A8FEF700FCE8
:101EB0000D4C172202A923680020984700200090AB
:101EC000A469202380220146A04708B0012010BD4C
:101ED000AE10B0C881FFA1A6A81FD300D5F0D922AB
:101EE000DA02DB498D14AF009407002010B50028FA
:101EF00000D1012000F0C0FE002010BD10B500F0A0
:101F000029FF002010BD7FB504460D466169B4F974
:101F10000800002910D0A16971B1FFF760FFD4E972
:101F20000521CDE901210090D4E900102B4622695A
:101F300001F0C6FA039010E0FFF751FF03A9CDE9C5
:101F40000001208A2B4682B2D4E9001001F086FA03
:101F5000012802D0002004B070BD0398FBE7000008
:101F60002DE9F04104460F46194EF568316800200E
:101F700081F852003068001D00F048FD38B9306823
:101F800090F82C1001208840316981433161601C38
:101F900007D137B13168BDE8F041091D0D4800F0A7
:101FA00085BD2C4430684460AC4206D23168B06BC9
:101FB000091DBDE8F04100F061BD3168706B091D7D
:101FC00000F05CFDB06A844200D2B462BDE8F081EA
:101FD0001C000020D80A002070B5044600F072FDF5
:101FE0001C4DA868401CA860286810B1686938B109
:101FF0000CE02C60A868012808D100F095F905E0F4
:102000002868E16AC06A884200D82C60686A401C6F
:102010006862E06A01212A698140114329610E4901
:1020200000EB800001EB8000211D00F03FFD00F07F
:1020300069FD686900280CD02868E16AC06A884296
:1020400007D206494FF080500860BFF34F8FBFF3AF
:102050006F8F70BD1C000020FC09002004ED00E023
:1020600038B500F02FFD104C2068C8B90F4800F0BB
:10207000F7FC0E48143000F0F3FC0C48E06014301C
:1020800020610A4B0020E83B009003F14802102138
:102090000A2000F06FFF206010B105A100F0B6FD2E
:1020A000BDE8384000F02EBD58000020D40B0020C1
:1020B000546D72510000000070B50C4D0C4E11E0D3
:1020C00000F000FDF068C468201D00F09FFCA868C7
:1020D000401EA8606868401E686000F013FD20463E
:1020E00000F053F868680028EAD170BD1C00002099
:1020F000C40A002030B40B46026C002A0CD0C16820
:102100001144C1608468A14201D30168C160C16803
:1021100030BC1846FEF787BA30BC70472DE9F04155
:10212000044617460026A56B226C002A10D0C7B1C2
:10213000E068FEF778FAE168206C091AE16022682D
:10214000914202D2A168081AE060022F16D017E06F
:102150002068A8B9A06801F05DFA06460020A060DA
:102160000EE06068FEF75FFA216C6068084460600A
:10217000A168884204D32068606001E005B16D1E4B
:102180006D1CA5633046BDE8F08110B5044694F897
:10219000510000280BD0012811D0022814D0502063
:1021A00080F31188BFF34F8FBFF36F8FFEE7206B73
:1021B00000F0BEFC2046BDE8104000F0B9BC20464F
:1021C000BDE8104000F0B4BC10BD00000749CA686B
:1021D0001168002904D00021016019B10020704766
:1021E0000121F9E7D068006870470000580000201E
:1021F0004FF470510F48420706D0C01D20F0070071
:102200000C49411AC1F570510B4A1060002353600C
:102210000144083921F00701183A11604B600B6046
:102220000B1A436001604068906050604FF00040BE
:1022300050617047FC0B002084000020074E4FF0D7
:102240008054074DFFF738FF30680128FAD92C6019
:10225000BFF34F8FBFF36F8FF4E70000FC0900203E
:1022600004ED00E003460098002905D00260C36336
:102270000164012100F0B4BE0060F8E72DE9F05FD1
:102280008246DDE90A590C9C0E4617469B46B9006A
:10229000A522206BFEF73EFA206B7F1E00EB870025
:1022A00020F00707780707D0502080F31188BFF38C
:1022B0004F8FBFF36F8FFEE74FF0000866B100202D
:1022C0002218315C82F83410315C11B1401C1028A6
:1022D000F6D384F8438001E084F83480072D00D3DE
:1022E0000625E5626564C4F84880201D00F0C3FB44
:1022F00004F1180000F0BFFB2461C5F10700A061E4
:102300006462C4F84C8084F8508084F852805A4645
:102310005146384600F0A6FA2060B9F1000F01D00E
:10232000C9F80040BDE8F09F70B50024124D04EBE1
:10233000840005EB800000F093FB641C072CF6D3AF
:102340000D488C3000F08CFB0B48A03000F088FB6F
:102350000948B43000F084FB0748C83000F080FB27
:102360000548DC3000F07CFB034904488C314163B4
:102370001431816370BD0000FC0900201C000020A6
:1023800030B5134900E011460A688242FBD34B681E
:102390005C18844203D140681844486008460D68C0
:1023A00044682318AB420DD1094B183B1B689A4275
:1023B00006D05268224442600A681268026002E055
:1023C000036000E00260814200D0086030BD000080
:1023D0008400002070B50024416000610C4D9142E2
:1023E0000AD8D11A8269914201D301240EE0011D5D
:1023F000286900F043FB09E09A4203D2994201D3D5
:10240000012403E0011DE86800F038FB204670BDA0
:102410005800002010B5044600F054FBA06B20B11A
:10242000002400F06FFB204610BD0124F9E710B531
:10243000044600F047FBA06BE16B884201D1012408
:1024400000E0002400F05EFB204610BDF8B5054614
:102450000E461748C068C068C468201D00F0D6FA50
:1024600094F82400410718D5A0692B46411932463B
:102470002046FFF7AFFFA0B10020034601460090C1
:102480002A46204601F0EAF958B9502080F3118815
:10249000BFF34F8FBFF36F8FFEE720F0010084F88A
:1024A0002400216A01B02046BDE8F0400847000042
:1024B0005800002030B587B03C4D6EE003980028EE
:1024C00003DADDE90420069990470398002864DBCD
:1024D000059C606910B1201D00F098FA02A800F078
:1024E000AFF8024603980A2857D2DFE800F0050546
:1024F000052D334A05052D3394F8240040F00100E2
:1025000084F824000498A169034601442046FFF79B
:1025100061FF68B3216A2046884794F82400400789
:102520003BD5002000900498A16900234218194669
:10253000204601F093F9D8B9502080F31188BFF3F9
:102540004F8FBFF36F8FFEE714F8240F20F00100C8
:10255000207022E094F8240040F0010084F8240068
:102560000498A06128B1811813462046FFF732FF76
:1025700013E0502080F31188BFF34F8FBFF36F8FAC
:10258000FEE794F82400810703D4204600F0D0FA37
:1025900003E020F0010084F82400002203A9286849
:1025A00000F076FE002889D107B030BD5800002029
:1025B000F8B506460D4600F015FC684600F040F8F8
:1025C0000446009810B101F0AFF8F8BD45B9A64235
:1025D00006D801F0A9F821463046FFF737FFF8BDCD
:1025E0000C481DB10169096891B10025311B2A46CB
:1025F000006800F01DFB01F097F80028EFD10649B4
:102600004FF080500860BFF34F8FBFF36F8FF8BD5E
:102610000125EBE75800002004ED00E00748416B7E
:102620000968002905D0416BC968C9684968816299
:1026300070474FF0FF318162704700001C0000209E
:1026400070B5054600F078FF0446074EB068844236
:1026500004D200F00BF80120286001E0002028607F
:10266000B460204670BD000058000020F8B51A4E36
:1026700020E0C0680568C468201D00F0C7F9216A21
:102680002046884794F82400400713D5A0692844C1
:10269000A84206D960602461211DF06800F0EEF9BF
:1026A00008E000200346014600902A46204601F03B
:1026B000D5F840B1F06801680029DAD1F0683169D5
:1026C000F1603061F8BD502080F31188BFF34F8F67
:1026D000BFF36F8FFEE700005800002009484068F4
:1026E000401C07D0502080F31188BFF34F8FBFF3F9
:1026F0006F8FFEE7502080F31188BFF34F8FBFF339
:102700006F8FFEE78C00002008B56846FFF75EFD7E
:102710000099FFF74DFFFFF7CDFEF6E72DE9F041F9
:10272000044600F0CFF994F9455004F1240609E07D
:10273000606A48B1304600F0B9FF08B100F0CCFA49
:102740006D1E6DB2002DF3DC4FF0FF3684F845604E
:1027500000F0D8F900F0B6F994F9445004F11007EC
:1027600009E0206948B1384600F0A0FF08B100F048
:10277000B3FA6D1E6DB2002DF3DC84F84460BDE841
:10278000F04100F0BFB900002DE9F04105460026F8
:1027900000F028FB324F386808B9FFF729FD786947
:1027A00005424DD18DB1083568070ED005F0070000
:1027B000C0F108000544680707D0502080F3118855
:1027C000BFF34F8FBFF36F8FFEE7CDB378688542BD
:1027D00036D8234918310846046801E021460446EA
:1027E0006068A84202D220680028F7D13868844285
:1027F00026D00E680836206808606068411B1029E2
:102800000ED96019420707D0502080F31188BFF31A
:102810004F8FBFF36F8FFEE741606560FFF7B0FD3C
:1028200061687868401A7860BA68904200D2B860EF
:1028300078690143616000202060F868401CF860FE
:1028400000F072FF700707D0502080F31188BFF3AB
:102850004F8FBFF36F8FFEE73046BDE8F081000079
:102860006C00002024384FF08073036221F00101D6
:10287000C1610449816142606FF0020140F8201992
:1028800070470000DD2600082DE9F04380462DED5D
:10289000048BB7B00E46DFED541A80EE218AC0EEED
:1028A000A18A81EE219A2422504913A8FDF700FF46
:1028B000B0EE490AFDF7BAFD8DED130AB0EE490AF4
:1028C000FDF7F0FDB1EE400A8DED140AB0EE490AB5
:1028D000FDF7E8FD8DED160AB0EE490AFDF7A6FDFD
:1028E0008DED170A2422414924310AA8FDF7E0FEA4
:1028F000B0EE480AFDF79AFD8DED0E0AB0EE480ADB
:10290000FDF7D0FDB1EE400A8DED0F0AB0EE480A9A
:10291000FDF7C8FD8DED110AB0EE480AFDF786FD02
:102920008DED120A24223149483101A8FDF7C0FE7D
:10293000B0EE680AFDF77AFD8DED010AB0EE680A87
:10294000FDF7B0FD8DED030AB0EE680AFDF7AAFDB4
:10295000B1EE400A8DED070AB0EE680AFDF766FD9C
:102960008DED090A00240DF170091FAF04EB440539
:1029700008EB85001CAA0AA9FFF737FA1CAA01A9CF
:102980001CA8FFF732FA1CAA13A91CA8FFF72DFAFE
:10299000002207EB850309EB820090ED000A03EBB0
:1029A000820080ED000A521C032AF4DB641C082C10
:1029B000DCDB0022002002EB420307EB830106EB85
:1029C000830301EB800494ED000A03EB800484EDA3
:1029D000000A401C0328F4DB521C082AEADB37B04B
:1029E000BDEC048BBDE8F083DB0F494028390008BB
:1029F000054D4FF480646420FFF778FA214628469D
:102A0000FEF73CF9F7E70000001402400169D0E945
:102A100001329A60D0E901235A604A68824201D1AA
:102A200082684A60002202610868401E08600868E7
:102A300070470000034B036003F1540008608020DE
:102A40001060704798000020044B036003F15400AD
:102A500008604FF48070106070470000EC020020A6
:102A600000F1080141604FF0FF328260C1600161F6
:102A700000210160704700210161704730B50C688A
:102A8000621C02D000F1080202E0026904E01A466A
:102A900053681D68A542FAD953684B6099608A60F3
:102AA000516008610168491C016030BD42684A609C
:102AB00093688B6093685960916008610168491C54
:102AC00001607047502080F31188BFF34F8FBFF330
:102AD0006F8F0A494868401C486001280CD108489B
:102AE000006810F0FF0F07D0502080F31188BFF36B
:102AF0004F8FBFF36F8FFEE7704700008C00002000
:102B000004ED00E009494868002806D0401E4860EE
:102B1000002801D180F311887047502080F311887C
:102B2000BFF34F8FBFF36F8FFEE700008C000020D4
:102B300070B500282AD008380446154D60686969C8
:102B4000084207D1502080F31188BFF34F8FBFF3A5
:102B50006F8FFEE722683AB1502080F31188BFF3EF
:102B60004F8FBFF36F8FFEE78843606000F03AF944
:102B700060686968084468602046FFF701FC2869BE
:102B8000401C2861BDE8704000F0CEBD70BD000063
:102B90006C0000204FF0E0200021016181610549B7
:102BA0004FF47A720968B1FBF2F1491E41610721C5
:102BB000016170471800002010B5FDF791FB114925
:102BC00010280ED300F1E02090F8F0030A7890422C
:102BD00007D2502080F31188BFF34F8FBFF36F8F60
:102BE000FEE709480068896800F4E060884207D978
:102BF000502080F31188BFF34F8FBFF36F8FFEE734
:102C000010BD00008C0000200CED00E010B500228B
:102C1000064B53F832401CB1521C082AF9D310BDA0
:102C200043F8321003EBC201486010BDBC0900201C
:102C300070B504460D461646FFF744FF94F944303C
:102C40004FF000005B1C01D184F8440094F945105A
:102C5000491C01D184F84500FFF754FFA06B28B947
:102C60003246294604F1240000F056F82046BDE81B
:102C70007040FFF753BD000010B502460020002A47
:102C800012D00F48006B38B1502080F31188BFF389
:102C90004F8FBFF36F8FFEE700F0A4F800211046BE
:102CA000FFF75EF900F040FD002807D105494FF01D
:102CB00080500860BFF34F8FBFF36F8F10BD0000CF
:102CC0001C00002004ED00E002490A6A0260C968A5
:102CD000416070471C00002001490120C861704715
:102CE0001C00002010B50C4600280AD009490968CC
:102CF0001831FFF7C3FE2046BDE810400121FFF761
:102D00002FB9502080F31188BFF34F8FBFF36F8F1F
:102D1000FEE700001C00002070B50D461446002898
:102D20000DD00B4909681831FFF7C0FE0CB14FF008
:102D3000FF3521462846BDE87040FFF711B9502005
:102D400080F31188BFF34F8FBFF36F8FFEE7000052
:102D50001C00002030B587B000250695059504AA13
:102D600005A906A8FFF766FEDDE90510CDE90051CB
:102D70000290002317A11948049A00F0A1FB184CF7
:102D8000E06208B1012000E00020012801D100F03C
:102D900031FD012809D0401C19D1502080F3118841
:102DA000BFF34F8FBFF36F8FFEE7502080F3118882
:102DB000BFF34F8FBFF36F8F4FF0FF30A062012042
:102DC0006061E56007B0BDE8304000F043B807B08F
:102DD00030BD000049444C45000000003D22000881
:102DE0001C0000200248016B491C01637047000071
:102DF0001C000020154A106B002802D00120D06171
:102E000070470020D0611069B0FA80F0C0F11F0057
:102E10000F4900EB800051F8203073B101EB8000C6
:102E200041684968416000F10803994201D149684D
:102E300041604068C06810607047502080F311887E
:102E4000BFF34F8FBFF36F8FFEE700001C00002021
:102E5000FC0900201CB537480168374A914207D168
:102E6000502080F31188BFF34F8FBFF36F8FFEE7C1
:102E700000683149491E884207D1502080F31188EB
:102E8000BFF34F8FBFF36F8FFEE72C490878019097
:102E9000FF200870087800909DF800009DF8002041
:102EA00000F0F000904207D0502080F31188BFF36B
:102EB0004F8FBFF36F8FFEE79DF80000204C00F0AE
:102EC000500020700720A06006E0A068401EA060AF
:102ED0009DF80000400000909DF800000006F4D42A
:102EE000A068032807D0502080F31188BFF34F8FCC
:102EF000BFF36F8FFEE74FF44070A0600198087039
:102F00000C482030016841F470010160016841F013
:102F100070410160FFF73EFE00206060FDF7A8F9F8
:102F20000848016841F040410160FDF78DF900203B
:102F30001CBD000000ED00E071C20F4100E400E0A4
:102F40008C00002034EF00E010B5502080F3118891
:102F5000BFF34F8FBFF36F8F00F0F4FA18B104493D
:102F60004FF080500860002080F3118810BD0000F1
:102F700004ED00E038B5049D002804D05BB102B137
:102F800089B1C2B120E0502080F31188BFF34F8F88
:102F9000BFF36F8FFEE7502080F31188BFF34F8F90
:102FA000BFF36F8FFEE7502080F31188BFF34F8F80
:102FB000BFF36F8FFEE739B1502080F31188BFF364
:102FC0004F8FBFF36F8FFEE7482400941C46012308
:102FD00084F846302B460094FFF744F9204638BD6C
:102FE00070B504460D46002C25D0FFF76BFDD4E9E3
:102FF0000F20216802FB0011A1600021A16321685C
:103000006160E06B2268216C401E00FB0121E160E1
:103010004FF0FF3084F8440084F8450004F11000BC
:103020008DB1FFF71DFD04F12400FFF719FDFFF737
:1030300069FD012070BD502080F31188BFF34F8FD0
:10304000BFF36F8FFEE721690029F0D000F02EFB5F
:103050000028ECD004494FF080500860BFF34F8F38
:10306000BFF36F8FE3E7000004ED00E02DE9FF47B9
:1030700082B004468A461E460025002C03D0BAF1D1
:10308000000F08D011E0502080F31188BFF34F8F5C
:10309000BFF36F8FFEE7206C38B1502080F31188AA
:1030A000BFF34F8FBFF36F8FFEE7022E0AD1E06BA5
:1030B000012807D0502080F31188BFF34F8FBFF352
:1030C0006F8FFEE700F02AFA48B9049838B1502013
:1030D00080F31188BFF34F8FBFF36F8FFEE74FF080
:1030E00000094FF08057DFF8E480FFF7EBFCA06B9E
:1030F000E16B884205D3022E03D0049808B325B3B0
:1031000027E0324651462046FFF708F8616A59B178
:1031100004F1240000F0CAFA68B1C8F80070BFF3E7
:103120004F8FBFF36F8F06E028B1C8F80070BFF370
:103130004F8FBFF36F8FFFF7E5FC012006B0BDE8AE
:10314000F087FFF7DFFC0020F8E76846FFF7BCFDDB
:103150000125FFF7D7FCFFF745FEFFF7B3FC94F915
:103160004400401C01D184F8449094F94500401C6F
:1031700001D184F84590FFF7C5FC04A9684600F02A
:1031800025F930B12046FFF7C9FA00F0CDFA00204A
:10319000D4E72046FFF74BF990B104F110000499F1
:1031A000FFF7A0FD2046FFF7B9FA00F0BDFA0028AE
:1031B0009BD1C8F80070BFF34F8FBFF36F8F94E7B8
:1031C0002046FFF7ABFA00F0AFFA8EE704ED00E01F
:1031D0002DE9F0470446894690461F46002C03D04F
:1031E000B9F1000F08D011E0502080F31188BFF32F
:1031F0004F8FBFF36F8FFEE7206C38B1502080F304
:103200001188BFF34F8FBFF36F8FFEE7022F0AD1F4
:10321000E06B012807D0502080F31188BFF34F8F57
:10322000BFF36F8FFEE7FFF7C7FC5020EFF3118667
:1032300080F31188BFF34F8FBFF36F8FA06BE16BEB
:10324000884206D3022F04D0002086F31188BDE8FF
:10325000F08794F94550A06B3A4649462046FEF760
:103260005DFF681C04D06D1C84F845500120ECE71C
:10327000606A0028FAD004F1240000F017FA002850
:10328000F4D0B8F1000FF1D00120C8F80000EDE74C
:103290002DE9F74783B004468A460026002C03D068
:1032A000BAF1000F08D011E0502080F31188BFF36D
:1032B0004F8FBFF36F8FFEE7206C38B1502080F343
:1032C0001188BFF34F8FBFF36F8FFEE700F026F931
:1032D00048B9059838B1502080F31188BFF34F8F5B
:1032E000BFF36F8FFEE700274FF08058DFF8D890CC
:1032F000FFF7E8FBA56BC5B151462046FEF7FAFE85
:103300006D1EA563206950B104F1100000F0CEF9E4
:1033100028B1C9F80080BFF34F8FBFF36F8FFFF75D
:10332000F1FB012006B0BDE8F087059808B126B191
:1033300007E0FFF7E7FB0020F4E701A8FFF7C4FC74
:103340000126FFF7DFFBFFF74DFDFFF7BBFB94F90D
:103350004400401C01D184F8447094F94500401C9D
:1033600001D184F84570FFF7CDFB05A901A800F055
:103370002DF858B12046FFF7D1F900F0D5F92046D5
:10338000FFF748F80028B3D00020CBE72046FFF72E
:1033900041F890B104F124000599FFF7A3FC204601
:1033A000FFF7BCF900F0C0F90028A1D1C9F80080EE
:1033B000BFF34F8FBFF36F8F9AE72046FFF7AEF949
:1033C00000F0B2F994E7000004ED00E02DE9F041CF
:1033D00005460C46002D11D0C4B1FFF773FB1E4EFD
:1033E000F1686B68CA1A30684FF0000C90F8520010
:1033F000A0B1306880F852C0012428E0502080F34A
:103400001188BFF34F8FBFF36F8FFEE7502080F31B
:103410001188BFF34F8FBFF36F8FFEE72068471C03
:1034200007D02F68366AB74205D08B4203D80124F3
:103430000DE000240BE0904206D9801A2060284657
:10344000FFF742FC002402E0C4F800C00124FFF7AB
:1034500059FB2046BDE8F0811C0000202DE9FF5FEC
:103460008146DDE90E788A4616469B46B000FFF796
:103470008BF9054628000AD05420FFF785F9044649
:103480000CB1256304E02846FFF752FB00E000245E
:103490009CB1002084F85100CDE90240CDE90078CC
:1034A0005B46324651464846FEF7E8FE2046FEF7A8
:1034B00093FD012004B0BDE8F09F4FF0FF30F9E725
:1034C000F0B585B00746DDE90A600C9C002815D0F0
:1034D000E4B1542503952063022084F851000020B4
:1034E00004ADCDE90240CDE900653846FEF7C6FEE1
:1034F0002046FEF771FD049805B0F0BD502080F322
:103500001188BFF34F8FBFF36F8FFEE7502080F31A
:103510001188BFF34F8FBFF36F8FFEE705484169F6
:10352000002903D0006B18B10020704701207047BC
:10353000022070471C0000200148C068704700004E
:103540001C0000202DE9F0410026304F386B002888
:1035500005D0B869401CB8613046BDE8F081FD680F
:103560006D1CFD609DB9786B006838B1502080F308
:103570001188BFF34F8FBFF36F8FFEE7786BB96B86
:103580007963B863386A401C3862FFF747F8B86A55
:10359000DFF87C8085420DD3786B006838B1786B9A
:1035A000C068C4686068854212D2B86202E04FF019
:1035B000FF30B8623868C06A00EB800058F820001D
:1035C000012800D90126F8690028C5D00126C3E7E3
:1035D000201DFFF71BFAA06A18B104F11800FFF7CD
:1035E00015FAE06A01213A6981401143396100EB23
:1035F000800008EB8000211DFFF758FAE06A396867
:10360000C96A8842C8D30126C6E700001C00002012
:10361000FC09002070B504460020002C41D0214D4B
:1036200029688C4207D0502080F31188BFF34F8F58
:10363000BFF36F8FFEE7A16C71B1491EA164636C8B
:10364000E26A9A422DD000292BD1201DFFF7DEF926
:10365000154A012140B112E0502080F31188BFF3D8
:103660004F8FBFF36F8FFEE7E06A00EB800352F8E5
:10367000233023B901FA00F3286998432861606C6C
:10368000E062C0F10700A061E06A2B698140194344
:10369000296100EB800002EB8000211DFFF706FA94
:1036A000012070BD1C000020FC0900202DE9F04124
:1036B000C068C468002C15D004F118000746FFF755
:1036C000A5F9174D2A6B0126A2B139461548FFF717
:1036D000EDF9E06A2968C96A88421ED90120EE61C5
:1036E000BDE8F081502080F31188BFF34F8FBFF306
:1036F0006F8FFEE7201DFFF789F9E06A2A6906FA55
:1037000000F111432961074900EB8000B43901EB56
:103710008000211DFFF7CAF9DBE70020E0E7000089
:103720001C000020B00A00202DE9F04100240027F1
:103730002D4D286B002807D0FFF7C4F9286B401ED9
:103740002863286B40B14AE0502080F31188BFF312
:103750004F8FBFF36F8FFEE7A868E8B3DFF88C8068
:1037600001261EE0D8F80C00C46804F11800FFF729
:103770004DF9201DFFF74AF9E06A2A6906FA00F1BF
:1037800011432961194900EB8000B43901EB800035
:10379000211DFFF78BF9E06A2968C96A884200D3C6
:1037A000EE61D8F800000028DCD10CB1FEF736FF3E
:1037B000AC6944B1FFF7C6FE00B1EE61641E002C97
:1037C000F8D10020A861E86930B10127084938071D
:1037D0000860BFF34F8F00E001E0BFF36F8FFFF78A
:1037E00091F93846BDE8F0811C000020B00A0020A5
:1037F00004ED00E030B587B00024FEF731FC134D36
:103800002868B0B100200690059004AA05A906A872
:10381000FFF71AF9DDE905100222CDE90021029037
:1038200000230BA10C48049AFFF74AFE686000B120
:10383000012414B107B0204630BD502080F3118818
:10384000BFF34F8FBFF36F8FFEE7000058000020DB
:10385000546D722053766300092700082DE9FF415B
:1038600006460A9F9C460020002E15D0154D2C6858
:10387000002C0ED000910192029606291BDAFFF768
:103880004DFE022810D000231A4669462868FFF72B
:10389000EDFB04B0BDE8F081502080F31188BFF348
:1038A0004F8FBFF36F8FFEE700233A4669462868C3
:1038B000FFF7DCFBEDE70023624669462046FFF791
:1038C00087FCE6E7580000204FF00000E1EE100A08
:1038D0007047000080420008F12900080000000045
:1038E0000000000080000000000000000000000058
:1038F00070420008C51A0008000000000100000026
:103900008000000000000000000000008842000865
:10391000DD1A00080000000002000000000800009E
:103920000000000000000000000000000000000097
:103930000000000000000000000000000000000087
:1039400000000000000000000000803F0000803FF9
:103950000000000000000000000000000000000067
:103960000000000000000000000000000000000057
:103970000000000000000000000000000000000047
:103980000000803F00000000000000000000000078
:10399000000000000000A0C10000A0C10000A0C104
:1039A0000000A0C10000A0410000A0C10000A04193
:1039B0000000A0410000A0C10000A0410000A0C183
:1039C0000000A0C10000A0C10000A0C10000A041F3
:1039D0000000A0C10000A0410000A0410000A041E3
:1039E0000000A0410000A0410000A0410000A0C1D3
:1039F0000000A041010000000200000002000000E1
:103A000003000000030000000400000004000000A8
:103A10000100000005000000060000000600000094
:103A20000700000007000000080000000800000078
:103A3000050000000800000004000000070000006E
:103A40000300000006000000020000000500000066
:103A5000010000000000000000000000010203045B
:103A6000060708090000000001020304000000002E
:103A7000920E493CB10AC93C2BC3163D2EFB483D72
:103A8000752B7B3D04A9963D80B6AF3D36BDC83D44
:103A90002FBCE13D73B2FA3D87CF093E8340163E0D
:103AA000B5AB223EA2102F3ECF6E3B3EC2C5473E75
:103AB0000115543E135C603E7F9A6C3ECCCF783E3D
:103AC000C07D823E938E883E229A8E3E32A0943EE6
:103AD00086A09A3EE59AA03E128FA63ED47CAC3ECC
:103AE000EF63B23E2A44B83E491DBE3E15EFC33EC9
:103AF00053B9C93ECA7BCF3E4136D53E80E8DA3E57
:103B00004F92E03E7533E63EBBCBEB3EEA5AF13EC8
:103B1000CBE0F63E275DFC3EE4E7003F3D9C033FE3
:103B2000824B063F9BF5083F6B9A0B3FDA390E3FFD
:103B3000CDD3103F2A68133FD9F6153FC07F183FF9
:103B4000C6021B3FD17F1D3FCBF61F3F9967223F27
:103B500025D2243F5636273F1594293F4AEB2B3F69
:103B6000DE3B2E3FBB85303FC9C8323FF304353FB3
:103B7000233A373F4268393F3B8F3B3FF9AE3D3FE9
:103B800067C73F3F70D8413F01E2433F03E4453FF1
:103B900065DE473F12D1493FF8BB4B3F029F4D3F87
:103BA000207A4F3F3D4D513F4918533F31DB543F41
:103BB000E595563F5348583F6AF2593F1A945B3F88
:103BC000532D5D3F05BE5E3F2146603F97C5613F77
:103BD0005A3C633F59AA643F880F663FD86B673FE2
:103BE0003CBF683FA7096A3F0C4B6B3F5E836C3F4D
:103BF00093B26D3F9ED86E3F73F56F3F0809713FDA
:103C00005213723F4714733FDD0B743F0BFA743F3E
:103C1000C6DE753F07BA763FC58B773FF853783FCE
:103C20009812793F9DC7793F02737A3FBE147B3F5C
:103C3000CDAC7B3F283B7C3FC9BF7C3FAC3A7D3F4E
:103C4000CCAB7D3F23137E3FB0707E3F6DC47E3F83
:103C5000580E7F3F6D4E7F3FAB847F3F0FB17F3F5C
:103C600097D37F3F43EC7F3F11FB7F3F0000803FB6
:103C700011FB7F3F43EC7F3F97D37F3F0FB17F3FE7
:103C8000AB847F3F6D4E7F3F580E7F3F6DC47E3FBC
:103C9000B0707E3F23137E3FCCAB7D3FAC3A7D3F7F
:103CA000C9BF7C3F283B7C3FCDAC7B3FBE147B3FF4
:103CB00002737A3F9DC7793F9812793FF853783F56
:103CC000C58B773F07BA763FC6DE753F0BFA743F68
:103CD000DD0B743F4714733F5213723F0809713F65
:103CE00073F56F3F9ED86E3F93B26D3F5E836C3F1E
:103CF0000C4B6B3FA7096A3F3CBF683FD86B673FDF
:103D0000880F663F59AA643F5A3C633F97C5613F9D
:103D10002146603F05BE5E3F532D5D3F1A945B3FD9
:103D20006AF2593F5348583FE595563F31DB543FBF
:103D30004918533F3D4D513F207A4F3F029F4D3F21
:103D4000F8BB4B3F12D1493F65DE473F03E4453F97
:103D500001E2433F70D8413F67C73F3FF9AE3D3F67
:103D60003B8F3B3F4268393F233A373FF304353FAF
:103D7000C9C8323FBB85303FDE3B2E3F4AEB2B3F6D
:103D80001594293F5636273F25D2243F9967223F75
:103D9000CBF61F3FD17F1D3FC6021B3FC07F183FA0
:103DA000D9F6153F2A68133FCDD3103FDA390E3FBD
:103DB0006B9A0B3F9BF5083F824B063F3D9C033FB0
:103DC000E4E7003F275DFC3ECBE0F63EEA5AF13ED9
:103DD000BBCBEB3E7533E63E4F92E03E80E8DA3EE9
:103DE0004136D53ECA7BCF3E53B9C93E15EFC33EDF
:103DF000491DBE3E2A44B83EEF63B23ED47CAC3E81
:103E0000128FA63EE59AA03E86A09A3E32A0943E2E
:103E1000229A8E3E938E883EC07D823ECCCF783EE5
:103E20007F9A6C3E135C603E0115543EC2C5473E0E
:103E3000CF6E3B3EA2102F3EB5AB223E8340163ED6
:103E400087CF093E73B2FA3D2FBCE13D36BDC83D78
:103E500080B6AF3D04A9963D752B7B3D2EFB483DBA
:103E60002BC3163DB10AC93C920E493C000000002C
:103E7000920E49BCB10AC9BC2BC316BD2EFB48BD6E
:103E8000752B7BBD04A996BD80B6AFBD36BDC8BD40
:103E90002FBCE1BD73B2FABD87CF09BE834016BE09
:103EA000B5AB22BEA2102FBECF6E3BBEC2C547BE71
:103EB000011554BE135C60BE7F9A6CBECCCF78BE39
:103EC000C07D82BE938E88BE229A8EBE32A094BEE2
:103ED00086A09ABEE59AA0BE128FA6BED47CACBEC8
:103EE000EF63B2BE2A44B8BE491DBEBE15EFC3BEC5
:103EF00053B9C9BECA7BCFBE4136D5BE80E8DABE53
:103F00004F92E0BE7533E6BEBBCBEBBEEA5AF1BEC4
:103F1000CBE0F6BE275DFCBEE4E700BF3D9C03BFDF
:103F2000824B06BF9BF508BF6B9A0BBFDA390EBFF9
:103F3000CDD310BF2A6813BFD9F615BFC07F18BFF5
:103F4000C6021BBFD17F1DBFCBF61FBF996722BF23
:103F500025D224BF563627BF159429BF4AEB2BBF65
:103F6000DE3B2EBFBB8530BFC9C832BFF30435BFAF
:103F7000233A37BF426839BF3B8F3BBFF9AE3DBFE5
:103F800067C73FBF70D841BF01E243BF03E445BFED
:103F900065DE47BF12D149BFF8BB4BBF029F4DBF83
:103FA000207A4FBF3D4D51BF491853BF31DB54BF3D
:103FB000E59556BF534858BF6AF259BF1A945BBF84
:103FC000532D5DBF05BE5EBF214660BF97C561BF73
:103FD0005A3C63BF59AA64BF880F66BFD86B67BFDE
:103FE0003CBF68BFA7096ABF0C4B6BBF5E836CBF49
:103FF00093B26DBF9ED86EBF73F56FBF080971BFD6
:10400000521372BF471473BFDD0B74BF0BFA74BF3A
:10401000C6DE75BF07BA76BFC58B77BFF85378BFCA
:10402000981279BF9DC779BF02737ABFBE147BBF58
:10403000CDAC7BBF283B7CBFC9BF7CBFAC3A7DBF4A
:10404000CCAB7DBF23137EBFB0707EBF6DC47EBF7F
:10405000580E7FBF6D4E7FBFAB847FBF0FB17FBF58
:1040600097D37FBF43EC7FBF11FB7FBF000080BFB2
:1040700011FB7FBF43EC7FBF97D37FBF0FB17FBFE3
:10408000AB847FBF6D4E7FBF580E7FBF6DC47EBFB8
:10409000B0707EBF23137EBFCCAB7DBFAC3A7DBF7B
:1040A000C9BF7CBF283B7CBFCDAC7BBFBE147BBFF0
:1040B00002737ABF9DC779BF981279BFF85378BF52
:1040C000C58B77BF07BA76BFC6DE75BF0BFA74BF64
:1040D000DD0B74BF471473BF521372BF080971BF61
:1040E00073F56FBF9ED86EBF93B26DBF5E836CBF1A
:1040F0000C4B6BBFA7096ABF3CBF68BFD86B67BFDB
:10410000880F66BF59AA64BF5A3C63BF97C561BF99
:10411000214660BF05BE5EBF532D5DBF1A945BBFD5
:104120006AF259BF534858BFE59556BF31DB54BFBB
:10413000491853BF3D4D51BF207A4FBF029F4DBF1D
:10414000F8BB4BBF12D149BF65DE47BF03E445BF93
:1041500001E243BF70D841BF67C73FBFF9AE3DBF63
:104160003B8F3BBF426839BF233A37BFF30435BFAB
:10417000C9C832BFBB8530BFDE3B2EBF4AEB2BBF69
:10418000159429BF563627BF25D224BF996722BF71
:10419000CBF61FBFD17F1DBFC6021BBFC07F18BF9C
:1041A000D9F615BF2A6813BFCDD310BFDA390EBFB9
:1041B0006B9A0BBF9BF508BF824B06BF3D9C03BFAC
:1041C000E4E700BF275DFCBECBE0F6BEEA5AF1BED5
:1041D000BBCBEBBE7533E6BE4F92E0BE80E8DABEE5
:1041E0004136D5BECA7BCFBE53B9C9BE15EFC3BEDB
:1041F000491DBEBE2A44B8BEEF63B2BED47CACBE7D
:10420000128FA6BEE59AA0BE86A09ABE32A094BE2A
:10421000229A8EBE938E88BEC07D82BECCCF78BEE1
:104220007F9A6CBE135C60BE011554BEC2C547BE0A
:10423000CF6E3BBEA2102FBEB5AB22BE834016BED2
:1042400087CF09BE73B2FABD2FBCE1BD36BDC8BD74
:1042500080B6AFBD04A996BD752B7BBD2EFB48BDB6
:104260002BC316BDB10AC9BC920E49BC0000008028
:104270004F6C65645F52656672657368000000008C
:1042800074657374000000004F6C65645F73686F41
:1042900077000000B44200080000002098000000F1
:1042A000C40100084C43000898000020C84D0000DD
:1042B000E001000800000000000000000000000015
:1042C0000100000010000000000000000024F400C5
:1042D00000000000000000000000000000000000DE
:1042E00000000000000000000000000000000000CE
:1042F00000000000000000000000000000000000BE
:1043000000000000000000000000000000000000AD
:10431000000000000000000000000000000000009D
:10432000000000000000000000000000000000008D
:10433000000000000000000000000000000000007D
:0C43400000000000AAAAAAAA00000000C9
:040000050800018965
:00000001FF
